:020000040800F2
:100000002008002045010008793100083B2E000837
:100010003F2E000845090008BD3800080000000018
:100020000000000000000000000000005533000840
:1000300049090008000000005B0100085D0100089C
:100040005F0100085F0100085F0100085F01000810
:100050005F0100085F0100085F0100085F01000800
:100060005F0100085F0100085F0100085F010008F0
:100070005F0100085F0100085F0100085F010008E0
:100080005F0100085F0100085F0100085F010008D0
:100090005F0100085F0100085F0100084B090008CC
:1000A0005F0100085F0100085F0100085F010008B0
:1000B0005933000869330008793300085F010008EC
:1000C0005F0100085F0100085F0100085F01000890
:1000D0005F010008993800085F0100085F0100080F
:1000E0005F0100085F0100085F0100085F01000870
:1000F0005F0100085F0100085F0100085F01000860
:100100005F0100085F0100085F0100085F0100084F
:100110002D3600085F010008893300089933000874
:100120005F0100085F0100085F0100085F0100082F
:10013000DFF80CD000F0E4FB004800474143000822
:10014000200800200648804706480047FEE7FEE7F3
:10015000FEE7FEE7FEE7FEE7FEE7FEE7FEE7FEE777
:100160005733000831010008D2B201E000F8012B3A
:10017000491EFBD270470022F6E710B513460A4627
:1001800004461946FFF7F0FF204610BDF0B480EAA0
:100190000102D40F4200B2EB410F02D202460846E0
:1001A00011464A0042D0C30DDDB2C1F3C752AD1AA9
:1001B000202D35DAC1F3160141F4000204B1524298
:1001C000C5F1200602FA06F12A411044B3EBD05FD4
:1001D00023D0C4B1012DA0EBC35009DCF0BC4FF01B
:1001E000004202EAC352DBB200F5000000F0CDBAD3
:1001F000400000F1807000EBC350A0F1807040EA35
:10020000D170490009E0490841EAC071A0EBC35030
:1002100000F50000400800EBC350F0BC00F0ACBAA1
:100220006142012202EB4101001BF6E7F0BC70477E
:1002300081F00041AAE780F00040A7E780EA0102D0
:1002400010B502F00043400022D04A001FD0010E3A
:1002500001EB1261C0F35600C2F3560240F40000F5
:1002600042F40002A0FB022000047F39140400D0F5
:10027000401C50EA124001D44000491EC2B20C0694
:1002800004EBD010401C4008802A02D003E000207C
:1002900010BD20F00100002900DA0020184310BD35
:1002A0002DE9FE4F804681EA0300C00F0C46009006
:1002B00021F0004123F00045B8EB0200A94105D22E
:1002C0004046214690461C460B46024623F000401D
:1002D000104347D0270DC7F30A00C3F30A51029019
:1002E000401A019040286BDAC3F3130040F4801BDE
:1002F0000098924620B10023D2EB030A63EB0B0B6C
:1003000001985946C0F14002504600F014FA0646E2
:100310000D4650465946019A00F01CFA10EB0800B1
:100320006141002487EA115284EAE7731A4340D0FE
:10033000009A62B3019A012A4FEA075215DC001BAA
:1003400061EB02014FF0004202EA0752CDE90042A0
:10035000001C41F5801132462B4600F053FA03B0E1
:10036000BDE8F08F40462146F9E7001B61EB020132
:10037000001C41F5801300185B412018A2F50017FE
:1003800047EB030140EAD570B6196D4111E06D08E5
:100390004FEA360645EAC0754FEA0752001B61EB8B
:1003A0000201001C41F5801149084FEA3000001994
:1003B000514132462B4603B0BDE8F04F00F013BA6E
:1003C0000098012240000023D0EB020263EBE073AF
:1003D000009821464FEAE074B8EB000061EB04019D
:1003E000E9E783F000435BE781F0004158E72DE93E
:1003F000FE4F81EA030404F0004421F00041009420
:100400004FF0000B23F0004350EA01045ED052EAA3
:1004100003045BD0C3F30A54C1F30A552C44A4F27D
:10042000F3340194A0FB0254C1F3130141F4801191
:10043000C3F3130343F4801301FB024400FB034E98
:10044000840A970A44EA815447EA8357A4FB076861
:1004500002958D0A05FB07854FEA932C04FB0C548B
:100460002705029D4FEA065847EA1637B5EB0805FF
:100470006EEB070C870E920E47EA811742EA831251
:10048000A7FB0201B6EB0B0164EB00042B0D43EA62
:100490000C335E1844EB1C50DA465146E7FB020170
:1004A000C5F313044FEA0B3343EA14534FEA043203
:1004B000019C43EA0603A4F10C040294009CCDE9DC
:1004C00000B400F09FF903B0BDE8F08F00200146B2
:1004D000F9E72DE9F04D81EA030404F0004B21F027
:1004E000004514464FF0000A23F0004150EA05028F
:1004F00020D054EA01021DD0C5F30A570246C5F3C5
:100500001303C1F31300C1F30A5640F4801543F4FA
:100510008013A7EB0608101BD64608F2FD3873EBD4
:10052000050002D308F1010801E092185B41B8F11F
:10053000000F03DA00200146BDE8F08D00204FF4E3
:100540008011064684460EE0171B73EB050705D3A2
:10055000121B63EB050306434CEA010C49084FEA02
:10056000300092185B4150EA0107EDD152EA0300D6
:1005700012D082EA040083EA0501084305D0101B6B
:10058000AB4106D20122002306E000224FF00043D7
:1005900002E06FF0010253101AEB06004CEB085119
:1005A00010EB0A0041EB0B01BDE8F04D00F01BB968
:1005B000C10F80EAE0700844CA079623002100F0CA
:1005C000E4B896230022114600F0DFB80EB5C10F43
:1005D00080EAE0700844CA07002140F233438DE806
:1005E0000E000A460B4600F00DF903B000BD00F006
:1005F000004220F00040C10DC0F3160040F400009E
:100600007F2901DA00207047962903DCC1F19601A9
:10061000C84001E096398840002AF4D04042704733
:1006200000F0004230F000400AD0C10D01F56071C9
:10063000C0F3160042EA0151C20840071143704757
:1006400000200146704701F0004330B421F0004122
:1006500050EA010206D00A0DA2F56072C1F313013F
:10066000002A02DC30BC00207047440F44EAC10479
:10067000C100E01830BC00EBC25000F07DB80000B3
:10068000002801DBC0F10040002901DBC1F100417D
:1006900081427047002801DBC0F10040002901DBE6
:1006A000C1F100418842704730B50B460146002039
:1006B0002022012409E021FA02F59D4205D303FA24
:1006C00002F5491B04FA02F52844151EA2F10102A5
:1006D000F1DC30BD2DE9F05F0546002092469B46D7
:1006E00088460646814640241BE028464146474648
:1006F000224600F017F953465A46C01A914110D3CA
:1007000011461846224600F016F82D1A67EB01082C
:100710004F4622460120002100F00DF817EB00099A
:100720004E41201EA4F10104DFDC484631462A4632
:100730004346BDE8F09F202A04DB203A00FA02F18C
:10074000002070479140C2F1200320FA03F31943BF
:1007500090407047202A06DBCB17203A41FA02F07E
:1007600043EAE07306E041FA02F3D040C2F120020E
:1007700091400843194670470029A8BF7047401CA4
:10078000490008BF20F00100704710B4B0FA80FCA7
:1007900000FA0CF050EA010404BF10BC704749B1E4
:1007A000CCF1200421FA04F411FA0CF118BF012154
:1007B00021430843A3EB0C01CB1D4FEA00614FEA34
:1007C000102042BF002010BC704700EBC350104403
:1007D0000029A4BF10BC7047401C490008BF20F08E
:1007E000010010BC704710B5141E73F1000408DA44
:1007F000401C41F1000192185B411A4301D120F0E5
:10080000010010BD2DE9F04D92469B4611B1B1FAA1
:1008100081F202E0B0FA80F220329046FFF78BFFBF
:1008200004460F4640EA0A0041EA0B0153465A4685
:10083000084313D0114653EA010019D0C8F1400211
:10084000504600F06FF805460E465046594642465F
:10085000FFF771FF084305D0012004E02046394628
:10086000BDE8F08D0020054346EAE0762C4337438F
:100870000A986305E40AA0EB08000022FD0A44EA96
:1008800047540A3002D500200146E9E70105101956
:100890006941DDE9084500196941BDE8F04DA2E76D
:1008A000C1F30A52C1F3130140F2FF3341F4801146
:1008B0009A4202DA00200146704740F233439A42DE
:1008C000A2F2334202DC524200F02CB8FFF733BFF1
:1008D00030B5041E71F1000404DB4FF000444042C7
:1008E00064EB0101141E73F1000405DB1C464FF09C
:1008F0000043524263EB0403994208BF904230BD6B
:10090000064C074D06E0E06840F0010394E807005C
:1009100098471034AC42F6D3FFF70EFC5845000858
:1009200078450008202A04DB203A21FA02F0002151
:10093000704721FA02F3D040C2F1200291400843EF
:100940001946704700BFFEE7704710B5202000F041
:10095000D1FA4FF4007000F0CDFA10BD00B58FB0A1
:1009600000200B900C900D900E9000BF3C488069C9
:1009700040F004003A4988610846806900F00400AC
:10098000019000BF00BF00BF0846C06940F00100F1
:10099000C8610846C06900F00100019000BF00BFB7
:1009A00001200B9002200C9001200D9003200E904E
:1009B0000BA92C4800F0ACFA02200B900BA9294897
:1009C00000F0A6FA4FF080402749086000204860F8
:1009D0000021254881604EF66021C160002101613F
:1009E0008021816103200290002003900120049067
:1009F000002005900A200690002007900120089012
:100A0000002009900A200A9002A9174801F058F91D
:100A10006FF0010014490968086100201249096853
:100A2000486211480068C06840F001000E4909683A
:100A3000C8600D480068006840F004000A49096871
:100A40000860012211461C2000F061FC1C2000F00F
:100A50004EFC3C21044801F096F90FB000BD0000A7
:100A60000010024000080140F801002000B58FB0DE
:100A700000200B900C900D900E9000BF3B488069B9
:100A800040F00400394988610846806900F004009C
:100A9000019000BF00BF00BF0846C06940F00200DF
:100AA000C8610846C06900F00200019000BF00BFA5
:100AB00040200B9002200C9001200D9003200E90FE
:100AC0000BA92B4800F024FA80200B900BA9284892
:100AD00000F01EFA274828490860002048600021DD
:100AE000254881604EF66021C160002101618021AE
:100AF00081610320029000200390012004900020D7
:100B000005900A2006900020079001200890002000
:100B100009900A200A9002A9174801F0D1F86FF055
:100B200001001549096808610020134909684862F5
:100B300011480068C06840F001000F490968C860AA
:100B40000D480068006840F004000B49096808601F
:100B5000012211461D2000F0DAFB1D2000F0C7FB2A
:100B60003C21054801F00FF90FB000BD0010024014
:100B70000008014000040040400200202DE9F84F29
:100B8000012211023D4800F06BFB0F2003F05EFBD9
:100B900000224FF48071394800F062FB00BF4FF42F
:100BA0000071364800F054FB0028F8D03448006843
:100BB000FFF7FEFC81463349FFF740FB8046FFF715
:100BC0002FFD06460F4630490968486AFFF7F9FCD1
:100BD0000090FFF725FD804600222C4BFFF779FCA3
:100BE000824632463B46FFF75BFB0446FFF72BFD90
:100BF0002749086000BF4FF40071204800F028FB2F
:100C00000128F8D01E490968642201FB02F0FFF7B1
:100C1000DDFC04460D461C490968486AFFF7D1FC13
:100C20000090FFF7FDFC80460022184BFFF751FCB7
:100C3000064622462B46FFF733FB8246FFF703FDAD
:100C4000144908601248016812480068FFF7F0FA7A
:100C500081461149FFF7F2FA0446FFF7E1FC074627
:100C600000224FF08043FFF734FC0546FFF7EBFC12
:100C70000A49086008460068BDE8F88F0010014086
:100C80001C0000200000C8428802002000005940DB
:100C9000E4000020E80000200000AA43EC0000204F
:100CA00070B50446002594F82100022803D00420E2
:100CB000A0630125C1E02068006820F00E002168D3
:100CC00008602068006820F00100216808605C4925
:100CD0002068884252D95A4978392068884201D11F
:100CE000012047E0564964392068884201D110202C
:100CF00040E0534950392068884201D1801539E0DD
:100D00004F493C392068884201D1801432E04C4977
:100D100028392068884202D14FF480302AE04849BF
:100D200014392068884202D14FF4801022E04449EF
:100D30002068884201D140041CE042492068884272
:100D400001D1012016E03F4914312068884201D1C9
:100D500010200FE03B4928312068884201D18015DE
:100D600008E038493C312068884201D1801401E014
:100D70004FF480303349091F086051E03049783919
:100D80002068884201D1012047E02D49643920685C
:100D9000884201D1102040E029495039206888421A
:100DA00001D1801539E026493C392068884201D1BB
:100DB000801432E0224928392068884202D14FF459
:100DC00080302AE01E4914392068884202D14FF44D
:100DD000801022E01A492068884201D140041CE0BA
:100DE00018492068884201D1012016E015491431C4
:100DF0002068884201D110200FE012492831206874
:100E0000884201D1801508E00E493C3120688842B3
:100E100001D1801401E04FF48030094980394860E5
:100E2000012084F8210000BF002084F8200000BFCA
:100E3000606B10B12046616B8847284670BD00008A
:100E4000800002400804024010B50446202C33D133
:100E500020211A4800F0FCF901281DD101220421AB
:100E6000174800F0FDF9642003F0D4F900220421B2
:100E7000134800F0F5F9C82003F0CCF90122042151
:100E80000F4800F0EDF9642003F0C4F900220421BA
:100E90000B4800F0E5F90CE001220421084800F0BD
:100EA000DFF9962003F0B6F900220421044800F08F
:100EB000D7F904A002F004FD10BD000000100140AD
:100EC00000080140D6D0B6CFD2D1B2B6BBF15F5F39
:100ED0005F5F5F5F5F5F5F5F5F5F5F5F5F5F5F5F22
:100EE0005F5F5F5F5F5F5F5F5F2D2D2D2D2D2D2D70
:100EF0000D0A000010B5044604480068204020B1E7
:100F0000024804602046FFF79FFF10BD1404014013
:100F10002DE9F847024600239C467BE14FF001088B
:100F200008FA03F4D1F8008008EA0400A0427DD159
:100F3000DFF8F4A2D1F80480A8EB0A09D0453AD032
:100F400014DCB8F1030F50D009DCB8F1000F31D038
:100F5000B8F1010F1CD0B8F1020F49D120E0B8F16F
:100F6000110F18D0B8F1120F42D11EE0B9F5881F49
:100F700025D006DCB9F5803F20D0B9F5801F37D1E8
:100F80001AE0B9F5001F18D0B9F5041F30D117E0E9
:100F9000D1F80CC02DE0D1F80C8008F1040C28E049
:100FA000D1F80C8008F1080C23E0D1F80C8008F18E
:100FB0000C0C1EE000BF00BF00BF00BF00BF00BFA1
:100FC000D1F80880B8F1000F02D14FF0040C0BE00B
:100FD000D1F80880B8F1010F03D14FF0080C14616B
:100FE00002E04FF0080C546103E04FF0000C00E009
:100FF00000BF00BFFF2801D8904601E002F10408BD
:101000004646FF2802D84FEA830803E0A3F1080808
:101010004FEA88084746D6F800804FF00F0909FAD2
:1010200007F928EA09080CFA07F900E07AE048EA2B
:101030000908C6F80080D1F8048008F08058B8F19B
:10104000805F6FD100BFDFF8E481D8F8188048F0E6
:101050000108DFF8D891C9F81880C846D8F8188078
:1010600008F00108CDF8008000BF00BF4FEAB93892
:101070004FEA930958F829504FEA83784FEA1879D4
:101080004FF00F0808FA09F825EA0805DFF8A081F3
:10109000424502D14FF0000824E0DFF89881424534
:1010A00002D14FF001081DE0DFF88C81424502D1EA
:1010B0004FF0020816E0DFF88481424502D14FF07C
:1010C00003080FE0DFF87881424502D14FF00408B1
:1010D00008E0DFF87081424502D14FF0050801E0D9
:1010E0004FF006084FEA83794FEA197908FA09F8B0
:1010F00048EA0505DFF850814FEA930948F829507E
:10110000D1F8048008F48038B8F5803F0BD1DFF8BF
:101110003C81D8F8008048EA0008DFF83091C9F82F
:1011200000800AE075E0DFF82481D8F8008028EA22
:101130000008DFF81891C9F80080D1F8048008F49D
:101140000038B8F5003F0ED1DFF8008108F104083F
:10115000D8F8008048EA0008DFF8F09009F10409A7
:10116000C9F800800DE0DFF8E48008F10408D8F841
:10117000008028EA0008DFF8D49009F10409C9F8D2
:101180000080D1F8048008F48018B8F5801F0ED1D3
:10119000DFF8B88008F10808D8F8008048EA0008AD
:1011A000DFF8A89009F10809C9F800800DE0DFF820
:1011B0009C8008F10808D8F8008028EA0008DFF8C9
:1011C0008C9009F10809C9F80080D1F8048008F46E
:1011D0000018B8F5001F0ED1DFF8708008F10C0878
:1011E000D8F8008048EA0008DFF8609009F10C099F
:1011F000C9F800800DE0DFF8548008F10C08D8F839
:10120000008028EA0008DFF8449009F10C09C9F8C9
:1012100000805B1CD1F8008028FA03F8B8F1000FB9
:101220007FF47CAEBDE8F88700001110001002408A
:1012300000080140000C0140001001400014014072
:1012400000180140001C014008000140000401405A
:10125000024693680B400BB1012000E0002070476C
:101260000AB1016101E00B040361704701480068A5
:10127000704700001000002010B50848006840F0DA
:10128000100006490860052000F080F80F2000F0EB
:1012900007F800F02BF8002010BD000000200240ED
:1012A00070B504460E4800784FF47A71B1FBF0F047
:1012B0000C490968B1FBF0F5284600F0F7FB08B1CE
:1012C000012070BD102C07D200222146501E00F0D4
:1012D0001EF80548046001E00120F2E70020F0E775
:1012E0001800002000000020140000207047014674
:1012F0000846002809DB00F01F0301229A40430939
:101300009B0003F1E023C3F8002100BF70472DE9E3
:10131000F05F80460D461646002702F0E1FA0746C8
:1013200039462A46334601F00700C0F1070ABAF1F0
:10133000040F02D94FF0040A01E0C0F1070AD146B8
:1013400000F1040ABAF1070F02D24FF0000A01E0DF
:10135000A0F1030AD4464FF0010A0AFA09FAAAF1E9
:10136000010A0AEA020A0AFA0CFA4FF0010B0BFA18
:101370000CFBABF1010B0BEA030B4AEA0B04214611
:10138000404602F0B5FABDE8F09F000000BF00F053
:101390000702064B19684FF6FF031940044B0B4335
:1013A00043EA0221014B196000BF70470CED00E0D9
:1013B0000000FA0570B504460D460CB9012070BD59
:1013C0005A48006800F00700A8420ED2574800684B
:1013D00020F007002843554908600846006800F0DF
:1013E0000700A84201D00120E9E7207800F00200C0
:1013F00002281DD1207800F00400042805D14C48B3
:10140000406840F4E0604A494860207800F00800F5
:10141000082805D14648406840F460504449486077
:101420004348406820F0F000A16808434049486004
:10143000207800F0010078B36068012806D13C48AC
:10144000006800F4003090B90120B8E76068022815
:1014500006D13748006800F0007040B90120AEE7BF
:101460003348006800F0020008B90120A7E73048BF
:10147000406820F00300616808432D494860FFF789
:10148000F5FE064609E0FFF7F1FE801B41F28831C8
:10149000884202D9032092E707E02548406800F01F
:1014A0000C006168B0EB810FEDD12048006800F0BE
:1014B0000700A8420ED91D48006820F00700284305
:1014C0001A4908600846006800F00700A84201D0E9
:1014D000012074E7207800F00400042807D11448A4
:1014E000406820F4E060E1680843114948602078D2
:1014F00000F00800082808D10D48406820F460502A
:10150000216940EAC1000A49486000F03FF80849F3
:101510004968C1F30311074A515CC8400649086095
:1015200006480068FFF7BCFE002048E700200240A4
:1015300000100240FC4400080000002014000020BD
:1015400001480068704700000000002000B5FFF768
:10155000F7FF04494968C1F30221034A515CC840BE
:1015600000BD0000001002400C45000800B5FFF768
:10157000E7FF04494968C1F3C221034A515CC840EE
:1015800000BD0000001002400C450008F0B585B019
:101590000FF26C0C9CE8E01001A8A0E8E0101CA57C
:1015A0002D68009500210022002300240020194D01
:1015B000696801F00C05F5B1042D02D0082D19D190
:1015C00001E0154819E001ADC1F38346AC5D01F4BB
:1015D000803555B10F4D6D68C5F340451DF80520A8
:1015E0000D4D6543B5FBF2F302E00C4D04FB05F332
:1015F000184602E000BF084800BF00BF05B0F0BDBC
:1016000002030405060708090A0B0C0D0E0F101043
:10161000010200000010024000127A0000093D00A3
:10162000F8B504460CB90120F8BD207800F001009F
:10163000002878D0F848406800F00C0004280CD04E
:10164000F548406800F00C00082811D1F2484068C5
:1016500000F48030B0F5803F0AD1EF48006800F414
:10166000003000285FD0606800285CD10120DBE7F3
:1016700000BF6068B0F5803F06D1E748006840F4DD
:101680008030E549086028E0606858B9E2480068A1
:1016900020F48030E04908600846006820F480208B
:1016A00008601AE06068B0F5A02F0BD1DA48006836
:1016B00040F48020D84908600846006840F4803033
:1016C00008600AE0D448006820F48030D2490860FD
:1016D0000846006820F48020086000BF606888B178
:1016E000FFF7C4FD054606E0FFF7C0FD401B642878
:1016F00001D9032098E7C848006800F400300028AA
:10170000F2D010E0FFF7B2FD054606E0FFF7AEFDB0
:10171000401B642801D9032086E7BF48006800F415
:1017200000300028F2D1207800F00200022857D1C2
:10173000B948406800F00C0050B1B748406800F06C
:101740000C00082818D1B448406800F4803098B9DB
:10175000B148006800F0020020B12069012801D0E2
:10176000012061E7AC48006820F0F800616940EAB8
:10177000C100A949086033E02069E8B10120A74908
:101780000860FFF773FD054606E0FFF76FFD401B9D
:10179000022801D9032047E79F48006800F00200B3
:1017A0000028F2D09C48006820F0F800616940EA07
:1017B000C1009949086013E0002098490860FFF7CC
:1017C00055FD054606E0FFF751FD401B022801D9F3
:1017D000032029E79048006800F002000028F2D1B9
:1017E000207800F0080008282DD1A069B8B10120A8
:1017F0008B490860FFF73AFD054606E0FFF736FD26
:10180000401B022801D903200EE78348406A00F0FC
:1018100002000028F2D0012001F04EFD13E000206C
:101820007F490860FFF722FD054606E0FFF71EFD31
:10183000401B022801D90320F6E67748406A00F0F1
:1018400002000028F2D1207800F00400042873D1AF
:1018500000277148C06900F0805070B900BF6E4821
:10186000C06940F080506C49C8610846C06900F00A
:101870008050009000BF00BF01276A48006800F454
:101880008070B0B96748006840F4807065490860AE
:10189000FFF7ECFC054606E0FFF7E8FC401B642878
:1018A00001D90320C0E65F48006800F4807000287A
:1018B000F2D000BFE068012806D15748006A40F026
:1018C00001005549086227E0E06858B95248006AAB
:1018D00020F00100504908620846006A20F0040028
:1018E000086219E0E06805280BD14B48006A40F017
:1018F0000400494908620846006A40F00100086295
:101900000AE04548006A20F00100434908620846A1
:10191000006A20F00400086200BFE068A0B1FFF791
:10192000A5FC054609E0FFF7A1FC401B41F2883108
:10193000884202D9032077E622E03748006A00F0A7
:1019400002000028EFD012E0FFF790FC054608E007
:10195000FFF78CFC401B41F28831884201D90320FB
:1019600062E62D48006A00F002000028F0D1012F45
:1019700005D12948C06920F080502749C86100BFBF
:10198000E069C8B32448406800F00C00082860D023
:10199000E069022848D1002020490866FFF766FC6C
:1019A000054606E0FFF762FC401B022801D9032030
:1019B0003AE61948006800F000700028F2D1206A69
:1019C000B0F5803F07D11448406820F40030A1688A
:1019D000084311494860D4E9080108430E494968A1
:1019E00021F4741108430C49486001200B49086632
:1019F000FFF73CFC054607E03DE0FFF737FC401BE6
:101A0000022801D903200FE60348006800F00070A7
:101A10000028F2D02FE000000010024000004242F7
:101A20008004424200700040002014490866FFF71D
:101A30001DFC054606E0FFF719FC401B022801D9F2
:101A40000320F1E50E48006800F000700028F2D194
:101A500011E0E069012800D1E6E50948466806F48E
:101A60008031206A814204D106F47011606A81429B
:101A700001D00120D8E50020D6E500000000424258
:101A800000100240042808D14FF0E021096941F01C
:101A900004014FF0E022116107E04FF0E0210969F5
:101AA00021F004014FF0E0221161704770B5044647
:101AB0002546681EB0F1807F01D301200FE0681E2B
:101AC0004FF0E02148610F214FF0FF3001F010FF8F
:101AD00000204FF0E021886107200861002070BDE0
:101AE0007047704710B504460CB9012010BD94F83A
:101AF0003D0028B9002084F83C00204600F026F87C
:101B0000022084F83D00211D206801F053FC0120D3
:101B100084F8460000BF84F83E0001213F200155B3
:101B2000402001554120015500BF00BF012084F82D
:101B3000420043200155442001554520015500BF76
:101B4000012084F83D000020D0E7000038B50446AD
:101B50003249206888422DD100BF3148C06940F029
:101B600010002F49C8610846C06900F010000090BD
:101B700000BF00BF002203213620FFF7C8FB36203C
:101B8000FFF7B5FB0020274909684862801E2549F8
:101B90000968086123480068C06840F001002149D5
:101BA0000968C8601F480068006840F004001D49CB
:101BB000096808601C49206888422DD100BF184878
:101BC000C06940F020001649C8610846C06900F0AD
:101BD0002000009000BF00BF012202213720FFF744
:101BE00096FB3720FFF783FB002010490968486205
:101BF000801E0E49096808610C480068C06840F002
:101C000001000A490968C86008480068006840F097
:101C1000040006490968086038BD00000010004053
:101C2000001002408802002000140040D002002072
:101C3000014691F83D00012801D0012070470220A3
:101C400081F83D000868C06840F001000B68D8606A
:101C5000164B0868984213D0154B086898420FD06D
:101C60000868B0F1804F0BD0124B0868984207D03B
:101C7000114B0868984203D0104B086898420CD169
:101C80000868806800F00702062A0CD0086800681F
:101C900040F001000B68186005E00868006840F03B
:101CA00001000B6818600020C8E70000002C01400C
:101CB000003401400004004000080040000C0040D7
:101CC0002DE9F04104460D4614B90120BDE8F0812C
:101CD00094F83D0028B9002084F83C00204600F02C
:101CE00051F8022084F83D002068806844F2070122
:101CF000884321688860211D206801F05BFB206813
:101D0000D0F80880206886692068076A286840EA59
:101D1000080840F203308643A969A86840EA012018
:101D2000064340F60C4086434FF2F0008643E969D3
:101D3000E86840EA0120064328690001296A40EA70
:101D40000130064327F022076969686840EA0110FC
:101D500007432068C0F80880206886612068076211
:101D6000012084F8460084F83E0001213F200155FF
:101D7000012084F8420043200155012084F83D00F1
:101D80000020A3E770472DE9F04304460D4694F880
:101D90003E603F20075D94F84280432010F8049095
:101DA0006DB9012E02D1B8F1010F02D00120BDE8BA
:101DB000F083022084F83E0084F8420025E0042DE0
:101DC0000CD1012F02D1B9F1010F01D00120EEE7B2
:101DD00002213F2001554320015516E0012E07D175
:101DE000012F05D1B8F1010F02D1B9F1010F01D0D6
:101DF0000120DCE7022084F83E0002213F2001554B
:101E0000022084F842004320015515B1042D0CD165
:101E100005E001220021206801F01AFB10E00122F8
:101E20000421206801F014FB0AE00122002120684F
:101E300001F00EFB01220421206801F009FB00BF24
:101E400000BF2068006840F00100216808600020A1
:101E5000ADE7704710B5044620680069C0F3400044
:101E6000D8B12068C068C0F34000B0B16FF0020084
:101E700021680861012020772068806900F0030054
:101E800018B12046FFF7E5FF05E0204600F0ADF869
:101E9000204600F0F9F90020207720680069C0F39F
:101EA0008000D8B12068C068C0F38000B0B16FF086
:101EB000040021680861022020772068806900F40E
:101EC000407018B12046FFF7C4FF05E0204600F03F
:101ED0008CF8204600F0D8F90020207720680069AF
:101EE000C0F3C000D8B12068C068C0F3C000B0B172
:101EF0006FF0080021680861042020772068C0691D
:101F000000F0030018B12046FFF7A3FF05E02046CC
:101F100000F06BF8204600F0B7F900202077206829
:101F20000069C0F30010D8B12068C068C0F3001089
:101F3000B0B16FF010002168086108202077206898
:101F4000C06900F4407018B12046FFF782FF05E039
:101F5000204600F04AF8204600F096F9002020774D
:101F60002068006900F0010058B12068C06800F0E6
:101F7000010030B16FF0010021680861204600F0D7
:101F8000FFF920680069C0F3C01058B12068C0682C
:101F9000C0F3C01030B16FF08000216808612046A6
:101FA000FFF79EFD20680069C0F3801058B12068DB
:101FB000C068C0F3801030B16FF040002168086144
:101FC000204600F0C3FC20680069C0F3401058B1FF
:101FD0002068C068C0F3401030B16FF02000216865
:101FE00008612046FFF77DFD10BD704770B50446BF
:101FF0000D46164600BF94F83C00012801D102208E
:1020000070BD012084F83C0000BF36B1042E1BD007
:10201000082E31D00C2E5ED145E02946206801F013
:1020200029FA2068806940F00800216888612068EA
:10203000806920F00400216888612068806929692E
:1020400008432168886147E02946206801F04AFA80
:102050002068806940F40060216888612068806998
:1020600020F480602168886120688069296940EADD
:102070000120216888612FE02946206801F070FA6C
:102080002068C06940F008002168C8612068C06904
:1020900020F004002168C8612068C06929690843EC
:1020A0002168C86118E02946206801F095FA206887
:1020B000C06940F400602168C8612068C06920F4EC
:1020C00080602168C8612068C069296940EA0120F0
:1020D0002168C86100E000BF00BF00BF002084F895
:1020E0003C0000BF00BF8BE710B504460CB90120CF
:1020F00010BD94F83D0028B9002084F83C0020462B
:1021000000F026F8022084F83D00211D206801F02F
:1021100051F9012084F8460000BF84F83E000121F7
:102120003F200155402001554120015500BF00BF0F
:10213000012084F8420043200155442001554520E8
:10214000015500BF012084F83D000020D0E70000C9
:1021500010B586B004463849206888423BD100BF9C
:102160003648C06940F004003449C8610846C06977
:1021700000F00400019000BF00BF00BF0846806966
:1021800040F0080088610846806900F0080001906E
:1021900000BF00BF40200290022003900120049065
:1021A0000320059002A92648FEF7B2FE8020029087
:1021B00002A92348FEF7ACFE4FF48070029002A9FA
:1021C0001F48FEF7A5FE4FF40070029002A91C48BC
:1021D000FEF79EFE00BF1B492068884229D100BF40
:1021E0001648806940F400501449886108468069A7
:1021F00000F40050019000BF00BF00BF0846806996
:1022000040F0100088610846806900F010000190DD
:1022100000BF00BF402002900220039004900320E2
:10222000059002A90848FEF773FE08A001F048FBDC
:1022300000BF06B010BD00000008004000100240C2
:10224000000C014000340140001001405F5F5F5FFF
:102250005F5F5F5F5F5F5F5F5F5F5F5F5F5F5F5F8E
:102260005F5F5F5F5F5F5F5F5F5F5F5F5F5F5F5F7E
:102270005F5F5F5F5F5F5F5F5F5F5F5F5F5F5F5F6E
:102280005F5F5F5F5F2D00007047000070B5044620
:102290000D4615B994F83E000BE0042D02D13F2005
:1022A000005D06E0082D02D14020005D01E04120E4
:1022B000005D012801D0012070BD1DB9022084F805
:1022C0003E000EE0042D03D102213F20015508E01D
:1022D000082D03D102214020015502E002214120B6
:1022E000015501222946206801F0B2F81F492068F3
:1022F000884203D01E492068884201D1012000E0B5
:10230000002028B12068406C40F4004021684864F7
:1023100016492068884213D01549206888420FD09A
:102320002068B0F1804F0BD012492068884207D056
:1023300011492068884203D01049206888420CD196
:102340002068806800F00706062E0CD02068006820
:1023500040F001002168086005E02068006840F056
:102360000100216808600020A6E70000002C014061
:10237000003401400004004000080040000C004010
:102380002DE9FC478246F749DAF8000088427DD102
:10239000F5480068401CF4490860FEF7EFFB04466E
:1023A000FEF725F9F1490860F1480068EE4909682F
:1023B000884206D10020EF490870EF490870EF49C4
:1023C0000870E9490868C11700EB91718910A0EB0A
:1023D0008101002949D1E8480078012845D1E84821
:1023E0000078012841D1E548007838B97C20E549DA
:1023F000096848630120E149087036E0DF48007849
:1024000001280BD1D9480068DF4908601820DD4950
:10241000096848630220D949087026E0D748007847
:10242000022822D1D3480078F8B9D0480068D749AB
:102430000860D54800680968884205DD0120D44954
:102440000860D449086004E00120D3490860D349FA
:1024500008600120C7490870C34800680F30C449AC
:1024600008604A20C74909684863C0480168CCA091
:1024700001F026FABD480068FA280BDAD748007840
:10248000662807D10020D649086000E013E0D5494E
:1024900008600AE2B5480068FA28FADAB848007815
:1024A0000128F6D1B54800780028F2D1CC4908605F
:1024B000CC490860F9E1CC49DAF800008842E8D15B
:1024C000AF480078012807D1AB48007820B9C82070
:1024D000C3490860C3490860C4480068416AC448E9
:1024E000006840F25372504301EB4010C14908604C
:1024F0000968C14A1268881AFEF768F80646BF4A9A
:10250000BF4BFDF774FF04460022BE4BFDF76FFF83
:1025100080460022BC4BFDF7DCFFCDE90001FEF751
:1025200092F8BA490860B3480068B3490860B848EF
:102530000068416AB748006840F25372504301EBAB
:102540004010B54908600968B44A1268881AFEF755
:102550003DF80646A94AAA4BFDF749FF80460022EE
:10256000A84BFDF744FF04460022A74BFDF7B1FF3F
:10257000CDE90001FEF767F8A9490860A6480068A0
:10258000A6490860A4480168A6A001F099F9A448EA
:102590000068FEF745F8044622460B46A8A001F065
:1025A0008FF98F480068FEF703F8044621469C48DF
:1025B000006800F049FDA94908608C4909684A6A29
:1025C0008B49096840F25373594302EB4110FDF700
:1025D000F8FFA349086083480068FDF7E9FF044657
:1025E00021468A48006800F097FC9E4908606A48C6
:1025F000006801280ED16948006801280AD17D4889
:10260000006899490844FDF7D3FF98490860002005
:102610006249086060480068012823D19048016839
:1026200092480068FDF704FE04469149FEF728F839
:1026300010D28B4801688D480068FDF7F9FD04460B
:102640008C49FEF727F805D20020664908605249F8
:10265000086007E0854801688148006800F08EFD49
:10266000604908606A4909684A6A6A49096840F22B
:102670005373594302EB4110FDF7A3FF7E490860F5
:102680004348006801280ED14248006801280AD159
:102690006148006879490844FDF78AFF7849086075
:1026A00000203C4908603A480068012823D172485C
:1026B000016873480068FDF7BBFD04466C49FDF7EF
:1026C000DFFF10D26C4801686D480068FDF7B0FD6F
:1026D00004466849FDF7DEFF05D200204049086046
:1026E0002B49086007E0664801686348006800F00D
:1026F0008DFD3B4908605B48006800280DDD5948A6
:10270000006841F61F41081A5E490968486341F6AE
:102710001F405C490968886310E05248006800283F
:102720000CDC41F61F405749096848634D48006872
:1027300041F61F41084453490968886347480068C7
:1027400000280DDD4548006841F61F41081A4D4933
:102750000968C86341F61F404A4909680864A4E053
:1027600092E00000001000401C00002050000020FB
:10277000600000205F0000205C0000205E00002060
:102780005D0000207C030020540000205800002041
:10279000240000202C000020200000202800002021
:1027A0006C656E3D25645F5F5F5F5F5F5F5F5F5F6E
:1027B0005F5F5F5F5F5F5F5F5F5F5F5F5F5F5F5F29
:1027C0005F5F5F5F5F5F5F5F5F5F5F5F5F5F5F5F19
:1027D0005F5F5F5F5F5F5F5F5F0D0A00E00000208B
:1027E0006C0000206800002000140040400200201F
:1027F000300000203400002038000020A7E8482ED8
:10280000FF210940004050400070A74048000020D0
:10281000F80100203C00002040000020440000207F
:102820004C000020B5B1C7B0D3D2C2D6B1E0C2EBE4
:10283000C6F7CAFDD6B5A3BA25640D0A000000008C
:10284000B5B1C7B0D3D2C2D6B5E7BBFAD7AACBD9F8
:10285000A3BA25666D2F730D0A00000070000020DA
:102860007C00002074000020581501008400002026
:102870000000FA440000FAC478000020A00901001A
:1028800080000020180300202848006800280CDC85
:1028900041F61F4026490968C8632448006841F68C
:1028A0001F4108442249096808642249DAF80000F7
:1028B000884218D120480068006800F010001028F5
:1028C00005D11E480068401E1C4908602BE01A48CC
:1028D00000680068C0F3001028BB18480068401C5E
:1028E000164908601FE0DAF80000B0F1804F1AD1F5
:1028F00013480068006800F01000102805D1114846
:102900000068401E0F4908600DE00D48006800682F
:10291000C0F3001038B90C4800F0D2FF0948006835
:10292000401C08490860BDE8FC87000070000020DA
:102930001803002000040040400200203000002066
:10294000F80100203C000020144500087047704743
:102950002DE9F0470446206805682068C6682068AD
:1029600047694FF00008C14605F00F08B8F1000FA5
:102970000AD105F0200038B106F0200020B1204631
:1029800000F08CFEBDE8F087B8F1000F71D007F0C1
:10299000010018B906F4907000286AD005F0010013
:1029A00030B106F4807018B1E06B40F00100E063D4
:1029B00005F0040030B107F0010018B1E06B40F001
:1029C0000200E06305F0020030B107F0010018B129
:1029D000E06B40F00400E06305F0080048B106F049
:1029E000200010B907F0010018B1E06B40F00800BA
:1029F000E063E06B68B305F0200028B106F020002A
:102A000010B1204600F04AFE20684069C0F38019EA
:102A1000E06B00F0080010B9B9F1000F22D0204699
:102A200000F01CFE2068406900F04000B0B1206852
:102A3000406920F0400021684861606B50B118483F
:102A4000616B4863606BFEF72BF910B1606B416BF3
:102A500088470CE02046FFF77AFF08E02046FFF7A2
:102A600076FF04E02046FFF772FF0020E06389E76D
:102A7000FFE705F0800030B106F0800018B1204675
:102A800000F0DAFE7EE705F0400030B106F04000CD
:102A900018B1204600F0F2FD74E700BF72E70000B5
:102AA0004936000810B504460CB9012010BDA069D4
:102AB00000B100E000BF94F8390028B9002084F884
:102AC0003800204600F028F8242084F839002068D7
:102AD000C06820F400502168C860204600F02EFE37
:102AE0002068006920F490402168086120684069EE
:102AF00020F02A00216848612068C06840F4005036
:102B00002168C8600020E063202084F8390084F840
:102B10003A000020CAE7000010B586B004464649D6
:102B20002068884237D100BF4448C06940F4002083
:102B30004249C8610846C06900F40020019000BF06
:102B400000BF00BF0846806940F010008861084659
:102B5000806900F01000019000BF00BF08150290CE
:102B6000022003900320059002A93548FEF7D0F912
:102B70004FF400600290002003900120049002A90D
:102B80002F48FEF7C5F9032202213420FEF7BFFBD0
:102B90003420FEF7ACFB2B49206888424AD100BFA5
:102BA00000BF2648806940F0040024498861084637
:102BB000806900F00400019000BF00BF00BF00BFAB
:102BC00000BF0846806940F00400886108468069BB
:102BD00000F00400019000BF00BF00BF00BF00BFB5
:102BE0000846806940F4804088610846806900F4A6
:102BF0008040019000BF00BF00BF48150290022036
:102C00000390012004900320059002A90E48FEF7CE
:102C10007FF94FF4806002900020039002A90A48D7
:102C2000FEF776F92520FEF762FB032211462520E8
:102C3000FEF76DFB06B010BD004C004000100240D6
:102C400000100140003801400008014010B5034663
:102C500093F83A0020282FD101B10AB9012010BD04
:102C600000BF93F83800012801D10220F7E70120C6
:102C700083F8380000BF99629A85DA850020D8630E
:102C8000222083F83A0000BF002083F8380000BFFC
:102C90001868C06840F480701C68E060186840697B
:102CA00040F001001C6860611868C06840F02000B6
:102CB0001C68E0600020D2E70220D0E710B504468F
:102CC00046492068884236D14548008800F40040D3
:102CD00088BB4348008800F4804070B141480078C8
:102CE0000A2803D000203E49088024E03C480088A0
:102CF00040F400403A4908801DE03A4800780D2829
:102D000006D13748008840F480403549088012E0F9
:102D10003448007832490988C1F30D01324A5054D1
:102D20002F480088401C2E49088008460088C72884
:102D300001DD002008802D49206888424CD12C48B4
:102D40000078662806D14FF4C8702A4908602A49DD
:102D5000086041E026480078732807D10020254903
:102D60000860254908602549087035E0204800784A
:102D7000622808D122481F4908601F49086021A025
:102D800000F09EFD28E01A4800786C2809D1C82080
:102D9000184908604042184908601AA000F090FDE8
:102DA0001AE01348007872280AD16FF0C700114961
:102DB0000860C8201049086012A000F081FD0BE0F7
:102DC0000B4800786B2807D101200C4908700020BF
:102DD000174908701749087010BD000000380140FD
:102DE0000C0000200E000020F0000020004C0040ED
:102DF000E00000206C000020680000205D00002042
:102E000070FEFFFF2D2D2D2D2D2D2D2D2D2D2D2D3A
:102E10002D2D2D2D2D2D2D2D2D2D2D2D2D2D2D2DE2
:102E20002D2D2D2D2D2D2D2D2D2D2D2D2D2D00002C
:102E30005E0000205F000020704700BFFEE700BF7B
:102E4000FEE7000010B52E482E49086000204860BB
:102E500041F61F412B48C1600021816080218161C2
:102E600000210161FFF740F9602027490860002038
:102E70004860886000222348FFF7B8F80021214805
:102E8000FFF704FA042220491E48FFF7AFF8042197
:102E90001C48FFF7FBF908221B491A48FFF7A6F860
:102EA00008211848FFF7F2F90C2217491548FFF7D7
:102EB0009DF80C211348FFF7E9F9144814490860FC
:102EC00040F29F50486040F2E7311148C160002154
:102ED00081608021816100210161FFF705F9602097
:102EE0000C4908604A204860002088600022084899
:102EF000FFF77CF800210648FFF7C8F910BD000075
:102F00000008004018030020600300200034014046
:102F10007C030020C40300202DE9F05F04460D4629
:102F200029462046FDF787F90646FDF760FB37493D
:102F300008600846016836A000F0C2FC3748006807
:102F4000324909680844354908600846006842F279
:102F50003411884203DD08463049086007E02F48F5
:102F6000006810F5FA5F02DA2D482C4908602749FD
:102F700009682C4A1268881AFDF71AFB81462A480C
:102F800001684846FDF75AF9074624480068FDF7EE
:102F90000FFB8346254801685846FDF74FF98146E7
:102FA0001A480068FDF704FB83462148016858462B
:102FB000FDF744F982464946FDF7E8F88046394670
:102FC000FDF7E4F80646FDF712FB1A4908600846CB
:102FD000016819A000F074FC0C48006811490860F1
:102FE0001448006841F6BC31884203DD08461149A7
:102FF000086007E00F4800681249884202DA084674
:103000000C4908600B480068BDE8F09FA400002050
:10301000426961733D25640D0A000000B000002084
:10302000C0E0FFFFAC000020900000208C000020DA
:1030300088000020A800002050776D3D25640D0A0F
:103040000000000044E4FFFF2DE9F05F04460D4658
:1030500029462046FDF7EFF80646FDF7C8FA37493E
:1030600008600846016836A000F02AFC374800686E
:10307000324909680844354908600846006842F248
:103080003411884203DD08463049086007E02F48C4
:10309000006810F5FA5F02DA2D482C4908602749CC
:1030A00009682C4A1268881AFDF782FA81462A4874
:1030B00001684846FDF7C2F8074624480068FDF756
:1030C00077FA8346254801685846FDF7B7F88146E8
:1030D0001A480068FDF76CFA834621480168584693
:1030E000FDF7ACF882464946FDF750F88046394670
:1030F000FDF74CF80646FDF77AFA1A4908600846CB
:10310000016819A000F0DCFB0C4800681149086058
:103110001448006841F6BC31884203DD0846114975
:10312000086007E00F4800681249884202DA084642
:103130000C4908600B480068BDE8F09F940000202F
:10314000426961735F523D25640D0A00A0000020B2
:10315000C0E0FFFF9C000020900000208C000020B9
:10316000880000209800002050776D5F523D256454
:103170000D0A000044E4FFFF704700002DE9F04114
:1031800004460D4629462046FDF755F80646FDF74C
:103190002EFA18490860184800680968084416495A
:1031A000086014480068FDF703FA074613480168F1
:1031B0003846FDF743F80646FDF719FA104908604E
:1031C0000C4800680F4908600D480068B0F5967F0C
:1031D00004DD4FF496700A49086007E0084800686B
:1031E00010F5967F02DA084805490860044800682F
:1031F000BDE8F081D0000020DC000020B4000020F9
:10320000D4000020D8000020D4FEFFFF2DE9F041BB
:1032100004460D4629462046FDF70DF80646FDF703
:10322000E6F91B490860084601681AA000F048FB4F
:103230001C4800681649096808441A49086014487F
:103240000068FDF7B5F90746174801683846FCF7EE
:10325000F5FF0646FDF7CBF9144908600C480068F5
:103260001349086011480068B0F5967F04DD4FF4FB
:1032700096700E49086007E00C48006810F5967FCC
:1032800002DA0C480949086008480068BDE8F08186
:10329000C0000020506F735F426961735F523D252B
:1032A000640D0A00CC000020B4000020C4000020FF
:1032B000C8000020D4FEFFFF08B508490968C90806
:1032C0004FF47A72B1FBF2F14143009100BF00BFAD
:1032D00000994A1E00920029F9D108BD0000002083
:1032E00000B585B00020019002900390049000BFCB
:1032F0001548806940F010001349886108468069CC
:1033000000F01000009000BF00BF88150190012060
:10331000029003900320049001A90C48FDF7F8FDEA
:103320004FF4007001900A48029001A90748FDF788
:10333000EFFD002202211720FDF7E9FF1720FDF71E
:10334000D6FF05B000BD0000001002400010014093
:10335000000031107047704710B50248FEF77AFD43
:1033600010BD0000F801002010B50248FEF772FD04
:1033700010BD00004002002010B50248FEF76AFDB3
:1033800010BD00001803002010B50248FEF762FDD2
:1033900010BD00008802002010B503A000F090FAD4
:1033A0000348FEF757FD10BD4F4B0D0A000000000B
:1033B000D002002010B50268204B98420ED0204B5E
:1033C00098420BD0B0F1804F08D01E4B984205D0E8
:1033D0001D4B984202D01D4B984203D122F070023F
:1033E0004B681A43154B98420ED0154B98420BD0A0
:1033F000B0F1804F08D0134B984205D0124B984241
:1034000002D0124B984203D122F44072CB681A4387
:1034100022F080034C6943EA040202608B68C362B5
:103420000B688362054B984202D0054B984201D14C
:103430000B6903630123436110BD0000002C0140B0
:10344000003401400004004000080040000C00402F
:1034500030B501F01F05012404FA05F3046A9C430A
:103460000462046A01F01F0502FA05F52C430462A8
:1034700030BD000030B5056A25F001050562026A1D
:103480004368846924F0700424F003040D682C431D
:1034900022F002028D682A43104DA84200D103E0B9
:1034A0000F4DA84206D100BF22F00802CD682A4382
:1034B00022F00402094DA84202D0094DA84207D1CA
:1034C00023F4807323F400734D692B438D692B43E0
:1034D000436084614D684563026230BD002C014049
:1034E0000034014030B5056A25F010050562026A16
:1034F0004368846924F4E04424F440740D6844EA89
:10350000052422F020028D6842EA0512124DA842DD
:1035100000D103E0114DA84207D100BF22F0800284
:10352000CD6842EA051222F040020B4DA84202D0BB
:103530000A4DA84209D123F4806323F400634D6946
:1035400043EA85038D6943EA8503436084614D68DE
:103550008563026230BD0000002C01400034014050
:1035600030B5056A25F480750562026A4368C4694E
:1035700024F0700424F003040D682C4322F400723C
:103580008D6842EA0522124DA84200D103E0114D98
:10359000A84207D100BF22F40062CD6842EA0522AA
:1035A00022F480620A4DA84202D00A4DA84209D1F5
:1035B00023F4805323F400534D6943EA05138D69C6
:1035C00043EA05134360C4614D68C563026230BDC0
:1035D000002C01400034014030B5056A25F48055C7
:1035E0000562036A4468C26922F4E04222F4407230
:1035F0000D6842EA052223F400538D6843EA05333F
:10360000084DA84202D0084DA84204D124F48044B9
:103610004D6944EA85144460C2614D6805640362E3
:1036200030BD0000002C01400034014010B50448BA
:10363000FFF78EF9012203490148FFF707FB10BD90
:10364000E0030020E000002070B505466C6A002011
:10365000E085E0842046FFF77AF970BD0168C9680B
:1036600021F490710268D1600168496921F001017B
:1036700002685161202180F83A10704710B5044665
:103680002068C06820F040002168C860202084F8CD
:1036900039002046FFF7D0FB002010BD70B504466E
:1036A00094F83A00222847D1A068B0F5805F0CD189
:1036B000206950B90025A66A20684068C0F3080058
:1036C0003080A06A801CA06215E0A56A0026A06870
:1036D000B0F5805F03D0A06828B9206918B92068C8
:1036E0004068287004E02068406800F07F0028707F
:1036F000A06A401CA062E08D401E80B2E085C8B97F
:103700002068C06820F020002168C8602068C06878
:1037100020F480702168C8602068406920F00100B2
:1037200021684861202084F83A002046FFF7C6FA55
:10373000002070BD0020FCE70220FAE770B50446C7
:103740002168096921F44051E2681143226811613E
:103750002269A1681143626941EA02052168C968CA
:1037600041F20C62914329432268D1602168496982
:1037700021F44071A2691143226851612D4A2168E8
:10378000914202D1FDF7F2FE01E0FDF7DFFE00EB12
:10379000C00101EB001162689200B1FBF2F100EB95
:1037A000C00202EB001263689B00B2FBF3F26423D9
:1037B000B2FBF3F202EBC20303EB0212A1EB8201B4
:1037C000322202EB01116422B1FBF2F101F0F001AF
:1037D00000EBC00202EB001263689B00B2FBF3F245
:1037E0006423B2FBF3F201EB021200EBC00101EB28
:1037F000001163689B00B1FBF3F100EBC00303EB26
:1038000000136668B600B3FBF6F36426B3FBF6F369
:1038100003EBC30606EB0313A1EB8301322303EB97
:1038200001116423B1FBF3F101F00F01114422688F
:10383000916070BD00380140014691F8390021289F
:1038400028D18868B0F5805F0BD1086948B90A6A49
:103850001088C0F308000B685860086A801C086272
:1038600005E00B6A581C086218780B685860C88C11
:10387000401E80B2C88458B90868C06820F0800033
:103880000B68D8600868C06840F040000B68D860DA
:10389000002070470220FCE710B50648FFF758F8F3
:1038A00000BF012204490348FFF7D0F90028F8D1EE
:1038B00010BD0000B80100200E00002000BFFEE790
:1038C0000FB4054B10B503A9044A029800F0F6F8AE
:1038D00010BC5DF814FB0000254300080800002020
:1038E00002480068C0F30220704700000CED00E0C1
:1038F00010B5002804DB0A07130E054A135406E02E
:103900000A07140E034A00F00F031B1FD45410BD06
:1039100000E400E018ED00E002E008C8121F08C152
:10392000002AFAD170477047002001E001C1121F40
:10393000002AFBD1704700002DE9FF5F82B0002113
:10394000DDE90430020DDDF840B0034318D044F641
:103950001050A2F2FF3242431514119801281FD0D3
:10396000A5EB0B00401C5FEA000A4FF000064E4F2B
:10397000DFF83891B046504615D5CAF1000413E07F
:10398000119801244AA3012801D16FEA0B01029882
:10399000119AC0E90031C0E9024206B0BDE8F09FCB
:1039A000CBF10000DFE704460021404A491842EB12
:1039B0000450CDE9001012E0E00707D032463B4644
:1039C00040464946FCF713FD8046894632463B4651
:1039D00010461946FCF70BFD06460F466410002CF6
:1039E000EAD1DDE90401DDE90023BAF1000F06DACE
:1039F000FCF7FDFC42464B46FCF7F9FC05E0FCF702
:103A000068FD42464B46FCF764FD04460E46002224
:103A1000284BFCF75DFF03D84FF0FF30014607E06D
:103A20000022254B20463146FCF73AFCFCF738FFD4
:103A3000102409E0002C0ADB0A220023FCF74AFECE
:103A4000039B30321A55641E50EA0102F2D1641C05
:103A5000039AC4F111031444119A012A03D00122DC
:103A600008430DD10AE0084304D000204FF0110BA9
:103A7000119072E7A3EB0B056D1E0DE05B4504DDB5
:103A80004FF0000205F1010504E003DA4FF00002F7
:103A9000A5F10105002AECD002981199C0E9023184
:103AA000C0E9004579E70000000014400000F03F45
:103AB000300000000000F0430000E03F2DE9FF4F20
:103AC00095B09B468946064600250FE2252877D10A
:103AD00000242746F84A0121059400E0044316F823
:103AE000013F203B01FA03F01042F7D130782A2839
:103AF00011D06FF02F033078A0F13002092A16D8C8
:103B0000059A44F0020402EB820203EB42021044E5
:103B1000761C0590EFE759F8042B0592002A03DA8A
:103B2000504244F40054059044F00204761C30786E
:103B30002E2816D116F8010F44F004042A280DD0BF
:103B40006FF02F023078A0F13003092B09D807EB72
:103B5000870302EB4303C718761CF3E759F8047B8D
:103B6000761C30786C280FD006DC4C2817D06828DB
:103B70000DD06A2814D104E0742810D07A280FD10F
:103B80000DE044F400140AE044F4801401E044F42D
:103B900040147278824202D104F58014761C761C9F
:103BA000307866280BD013DC582877D009DC002841
:103BB00075D04528F6D04628F4D047281AD19DE183
:103BC00018E0632835D0642879D0652812D195E1B2
:103BD000702873D008DC6728F1D069286FD06E2870
:103BE0000DD06F2806D1B5E073282CD0752875D07C
:103BF000782874D05A46179990476D1C75E1C4F324
:103C00000250022809D003280DD0D9F8001004284A
:103C10000DD00D6009F1040967E1D9F80010EA1729
:103C2000C1E90052F6E7D9F800100D80F2E70D70F7
:103C3000F0E719F8041B8DF8001000208DF8010042
:103C4000EA46012003E059F804AB4FF0FF3061076A
:103C50004FF0000102D40DE008F101018846B9429D
:103C60000FDA8045F8DB1AF808100029F4D108E0D3
:103C700008F1010188468142FADB1AF80810002990
:103C8000F6D105985B46A0EB080721463846179AFF
:103C900000F094FA284400EB080507E04DE029E124
:103CA0000DE01AF8010B5A4617999047B8F1010830
:103CB000F7D25B4621463846179A13E142E00A22C2
:103CC0000092C4F302524FF0000A022A08D059F8B9
:103CD00004CB032A4FEAEC710AD00DE029E02AE078
:103CE00009F1070121F00702F2E802C1914609E05B
:103CF0000FFA8CFC4FEAEC71042A03D14FFA8CFCCA
:103D00004FEAEC71002907DA0A460021DCF1000CC9
:103D100061EB02012D2202E0220504D52B228DF851
:103D20000420012203E0E20701D02022F7E79046B9
:103D300059E00A2102E010220DE010214FF0000AA4
:103D400000910BE010224FF0000A44F00404082711
:103D5000009203E008224FF0000A0092C4F30252DE
:103D6000022A05D059F804CB0021032A08D009E023
:103D700009F1070121F00702F2E802C1914605E0CE
:103D80001FFA8CFC042A01D10CF0FF0C4FF0000844
:103D9000220728D5702806D0009B83F0100353EA31
:103DA0000A0305D00EE040228DF80420012208E02D
:103DB0005CEA010206D030228DF804208DF805005F
:103DC00002229046009B83F0080353EA0A030AD1BB
:103DD0005CEA010201D1620705D530228DF804208A
:103DE0004FF001087F1E582804D034A003900EA87D
:103DF00002900DE036A0F9E753466046009AFCF7C2
:103E000069FC84460398825C0298401E029002700E
:103E10005CEA0100F0D1029806A9081A00F1200A14
:103E2000600702D524F4803400E00127574502DD05
:103E3000A7EB0A0000E0002000EB0A0100900598C3
:103E40004144401A0590E00306D45B462146179A88
:103E5000059800F0B3F90544002706E001A85A468A
:103E6000C05D179990476D1C7F1C4745F6DBE0034A
:103E70000CD55B462146179A059800F09FF905443A
:103E800004E030205A46179990476D1C0099481E4F
:103E900000900029F5DC08E0029802995A46007863
:103EA000491C0291179990476D1CBAF10001AAF1C3
:103EB000010AF1DC65E100000928010030313233EC
:103EC0003435363738396162636465660000000056
:103ED0003031323334353637383941424344454640
:103EE0000000000000F058F90544761C30780028E6
:103EF0007FF4ECAD19B02846BDE8F08F620700D41E
:103F0000062709F1070222F0070CFCE80223E1462C
:103F100003F000485FEA080C02D00FF2702C0DE0AD
:103F20005FEA045C02D50FF2682C07E05FEAC47C0C
:103F300002D00FF2602C01E0AFF2700C4FF0FF38AE
:103F400023F00043CDF850C065280CD006DC45288E
:103F500009D046281DD047283DD13DE0662818D01D
:103F600067287ED138E00021112F01DB112000E00D
:103F7000781CCDE9000106A90EA8FFF7DDFCDDE9FC
:103F80000F010E9A03910021009207F1010A04919A
:103F90004DE04FF000400097CDE9011006A90EA8B2
:103FA000FFF7CAFCDDE90F0203920E9B1199002274
:103FB000DDF80CA00093049211B9791C00EB010A02
:103FC000B7EB0A0004D4C0F1FF3007F1010A0490F6
:103FD000AAEB0700019044E0012F00DA012700213D
:103FE000112F01DD112000E03846CDE9000106A9BE
:103FF0000EA8FFF7A1FCDDE90F010E9A0391002145
:1040000004910092BA4621070CD40399514500DA75
:104010008A46BAF1010F05DD009AAAF10101515C4F
:10402000302908D0B84202DA10F1040F06DA012173
:10403000CDE9011015E0AAF10101E9E7002805DC4E
:10404000049901440491AAEB000102E0411C51458E
:1040500000DD8A460499401A401C01904FF0004050
:104060000290200704D40198504501DBCDF804806C
:1040700000208DF84F0002980DF14F07B0F1004F6E
:1040800025D02B200E9002984FF0020800280CDA61
:10409000404202902D200E9007E00A210298FCF782
:1040A00003FB3031029007F8011DB8F10001A8F1BF
:1040B0000108F2DC02980028EFD1791E0E980870F2
:1040C000307800F0200040F0450007F8020D12A8FB
:1040D000C01B00F107081498007800B1012000EB24
:1040E0000A01019801EBE07105984144401A401E15
:1040F0000590E00306D45B462146179A059800F028
:104100005DF805441498007818B15A4617999047FD
:104110006D1CE00324D55B462146179A059800F0F4
:104120004DF805441CE00498002807DBDDE9030195
:10413000884203DD0098405C179901E01799302010
:104140005A469047049805F10105401C04900198D7
:10415000401E019004D12E205A46179990476D1C9D
:10416000BAF10001AAF1010ADDDC05E017F8010B44
:104170005A46179990476D1CB8F10001A8F1010843
:10418000F4DC5B462146179A0598ABE62D0000004B
:104190002B000000200000002DE9F041044600251E
:1041A0001E461746880404D405E039462020B0474F
:1041B0006D1C641EF9D52846BDE8F0812DE9F0415B
:1041C000044600251E469046C80301D5302700E06E
:1041D0002027880404D505E041463846B0476D1CC9
:1041E000641EF9D52846BDE8F081000010B50446EC
:1041F00000204FF0E0210861FDF744FC2046E11764
:1042000004EB5171C1F3CF01014A118010BD0000D0
:104210000400002070B504464FF47A7094FBF0F56A
:1042200094FBF0F100FB114603E0074800F00EF8A4
:104230006D1E002DF9D12EB14FF47A7106FB01F0FD
:1042400000F004F870BD000040420F000146114A22
:1042500012884A434FF0E0235A6100229A611A46BD
:10426000126942F001021A6100BF4FF0E0221069AA
:1042700000F001021AB100F48032002AF5D04FF0AC
:10428000E022126922F001024FF0E0231A610022BD
:104290009A6170470400002000B585B000BF1D483A
:1042A000806940F010001B4988610846806900F071
:1042B0001000009000BF00BF00BF0846806940F0BA
:1042C000040088610846806900F00400009000BF87
:1042D00000BF20200190104802900220039003208C
:1042E000049001A90D48FCF713FE002202211720BB
:1042F000FDF70DF81720FCF7FAFF042001900120CC
:10430000029002200390049001A90548FCF700FEEA
:1043100005B000BD00100240000031100010014047
:104320000008014000BF054A126802F04002002A5E
:10433000F9D0C2B2014B1B1D1A6070470038014012
:10434000FCF79AFFFEF7CCFF4FF4E01000F042F8C4
:104350004820FFF74BFF4FF4E13000F0B3F8FCF7D3
:1043600085FBFCF7FBFAFFF797FF40F2CF2142F203
:104370000F7000F063F840F2671142F20F7000F026
:1043800071F8FEF75FFD4FF4165000F07FF818E06B
:104390000C480068FA280BDA012204210A48FCF7CD
:1043A0005FFF0A48007860B901200949087008E0F9
:1043B00004480068FA2804DB002204210248FCF7C4
:1043C0004FFFE5E750000020000801405E0000209C
:1043D0005C00002030B58FB005460124282105A8D7
:1043E000FBF7C9FE14216846FBF7C5FE01200590C6
:1043F000000406900020079002200C90C1030D914C
:104400000E9505A8FDF70CF904460CB100BFFEE7B8
:104410000F20009002200190002002904FF4806055
:1044200003900020049002216846FCF7C3FF044675
:104430000CB100BFFEE70FB030BD000070B50546FF
:104440000C4606480649086008464460C560FDF70A
:1044500049FB0348FDF7ECFB70BD00000010004075
:104460008802002070B505460C46064806490860DB
:1044700008464460C560FDF735FB0348FDF7D8FBEF
:1044800070BD000000140040D002002010B50446AA
:1044900009480A4908600846446000218160C160FB
:1044A000016181610C214161FEF7FCFA012204499E
:1044B0000248FEF7CBFB10BD004C0040E00300209B
:1044C000E000002010B5044609480A490860084683
:1044D000446000218160C160016181610C21416102
:1044E000FEF7E0FA012204490248FEF7AFFB10BDD7
:1044F00000380140B80100200E000020000000003C
:104500000000000001020304060708090000000083
:1045100001020304BDF8C8EBD6D0B6CFA1AAA1AA68
:10452000A1AAA1AAA1AAA1AAA1AAA1AAA1AAA1AA33
:10453000A1AAA1AAA1AAA1AAA1AAA1AAA1AAA1AA23
:10454000A1AAA1AAA1AAA1AAA1AAA1AAA1AAA1AA13
:10455000A1AAA1AA000000007845000800000020E0
:10456000F00000001839000868460008F00000203C
:1045700030070000283900080024F4000000000083
:10458000000000000000000000000000100000001B
:10459000010000000000000000000000000000001A
:1045A000000000000000000000000000000000000B
:1045B00000000000000000000000000000000000FB
:1045C00000000000000000000000000000000000EB
:1045D00000000000000000000000000000000000DB
:1045E00000000000000000000000000000000000CB
:1045F00000000000000000000000000000000000BB
:104600000000E04066666640000000000000000018
:10461000000000000000000000000000000000009A
:104620000000000000000000000000006F12033CCA
:10463000000000000000000000000000000000007A
:10464000000000000000000000000000000000006A
:10465000000000000000000000000000000000005A
:08466000000000000000000052
:0400000508000131BD
:00000001FF
